{
    "contractName": "Rent",
    "abi": [
        {
            "inputs": [
                {
                    "internalType": "address payable",
                    "name": "_admin",
                    "type": "address"
                }
            ],
            "stateMutability": "nonpayable",
            "type": "constructor"
        },
        {
            "inputs": [
                {
                    "internalType": "uint256",
                    "name": "_day",
                    "type": "uint256"
                },
                {
                    "internalType": "uint256",
                    "name": "_room",
                    "type": "uint256"
                }
            ],
            "name": "addReservation",
            "outputs": [],
            "stateMutability": "payable",
            "type": "function"
        },
        {
            "inputs": [],
            "name": "admin",
            "outputs": [
                {
                    "internalType": "address payable",
                    "name": "",
                    "type": "address"
                }
            ],
            "stateMutability": "view",
            "type": "function"
        },
        {
            "inputs": [],
            "name": "admin2",
            "outputs": [
                {
                    "internalType": "address payable",
                    "name": "",
                    "type": "address"
                }
            ],
            "stateMutability": "view",
            "type": "function"
        },
        {
            "inputs": [],
            "name": "getAllTable",
            "outputs": [
                {
                    "internalType": "uint256[7][5]",
                    "name": "",
                    "type": "uint256[7][5]"
                }
            ],
            "stateMutability": "view",
            "type": "function"
        },
        {
            "inputs": [
                {
                    "internalType": "address",
                    "name": "wallet",
                    "type": "address"
                }
            ],
            "name": "getClientReservations",
            "outputs": [
                {
                    "internalType": "uint256[7][5]",
                    "name": "",
                    "type": "uint256[7][5]"
                }
            ],
            "stateMutability": "view",
            "type": "function"
        },
        {
            "inputs": [],
            "name": "resetAll",
            "outputs": [],
            "stateMutability": "nonpayable",
            "type": "function"
        },
        {
            "inputs": [
                {
                    "internalType": "address",
                    "name": "wallet",
                    "type": "address"
                }
            ],
            "name": "resetClientInfo",
            "outputs": [],
            "stateMutability": "nonpayable",
            "type": "function"
        },
        {
            "inputs": [
                {
                    "internalType": "address",
                    "name": "_admin",
                    "type": "address"
                }
            ],
            "name": "setAdmin2",
            "outputs": [],
            "stateMutability": "nonpayable",
            "type": "function"
        },
        {
            "inputs": [],
            "name": "withdraw",
            "outputs": [],
            "stateMutability": "nonpayable",
            "type": "function"
        }
    ],
    "bytecode": "608060405234801561001057600080fd5b5060405161088a38038061088a83398101604081905261002f916100ae565b6001600160a01b0381166100895760405162461bcd60e51b815260206004820152601b60248201527f41646d696e20616464726573732063616e2774206265206e756c6c0000000000604482015260640160405180910390fd5b600080546001600160a01b0319166001600160a01b03929092169190911790556100de565b6000602082840312156100c057600080fd5b81516001600160a01b03811681146100d757600080fd5b9392505050565b61079d806100ed6000396000f3fe6080604052600436106100865760003560e01c806390da80d31161005957806390da80d314610121578063bfd1f5b514610141578063e103aef514610161578063f851a44014610176578063fc36ce8a1461019657600080fd5b806306a8f8a21461008b5780630d0d141d146100c85780631bf602ff146100ea5780633ccfd60b1461010c575b600080fd5b34801561009757600080fd5b506001546100ab906001600160a01b031681565b6040516001600160a01b0390911681526020015b60405180910390f35b3480156100d457600080fd5b506100dd6101a9565b6040516100bf919061067d565b3480156100f657600080fd5b5061010a6101053660046106d8565b610214565b005b34801561011857600080fd5b5061010a610277565b34801561012d57600080fd5b5061010a61013c3660046106d8565b610363565b34801561014d57600080fd5b506100dd61015c3660046106d8565b6103cc565b34801561016d57600080fd5b5061010a61044f565b34801561018257600080fd5b506000546100ab906001600160a01b031681565b61010a6101a4366004610708565b61049e565b6101b16105e3565b6040805160a08101909152600260056000835b8282101561020b576040805160e081019182905290600784810287019182845b8154815260200190600101908083116101e4575050505050815260200190600101906101c4565b50505050905090565b6000546001600160a01b031633148061024c57506001546001600160a01b03163314801561024c57506001546001600160a01b031615155b61025557600080fd5b600180546001600160a01b0319166001600160a01b0392909216919091179055565b6000546001600160a01b03163314806102af57506001546001600160a01b0316331480156102af57506001546001600160a01b031615155b6102b857600080fd5b600080546040516001600160a01b039091169047908381818185875af1925050503d8060008114610305576040519150601f19603f3d011682016040523d82523d6000602084013e61030a565b606091505b50509050806103605760405162461bcd60e51b815260206004820152601860248201527f5472616e7366657220746f2061646d696e206661696c6564000000000000000060448201526064015b60405180910390fd5b50565b6000546001600160a01b031633148061039b57506001546001600160a01b03163314801561039b57506001546001600160a01b031615155b6103a457600080fd5b6001600160a01b0381166000908152602560205260408120906103c78282610610565b505050565b6103d46105e3565b6001600160a01b038216600090815260256020526040808220815160a081019092529091600590835b82821015610444576040805160e081019182905290600784810287019182845b81548152602001906001019080831161041d575050505050815260200190600101906103fd565b505050509050919050565b6000546001600160a01b031633148061048757506001546001600160a01b03163314801561048757506001546001600160a01b031615155b61049057600080fd5b61049c60026000610610565b565b600682111580156104b0575060048111155b6104fc5760405162461bcd60e51b815260206004820152601860248201527f556e617070726f70726961746520706172616d657472657300000000000000006044820152606401610357565b34662386f26fc10000146105525760405162461bcd60e51b815260206004820152601b60248201527f556e617070726f70726961746520616d6f756e74206f662077656900000000006044820152606401610357565b33600090815260256020526040902060019083600581106105755761057561072a565b60070201826007811061058a5761058a61072a565b01600082825461059a9190610740565b9091555060019050600283600581106105b5576105b561072a565b6007020182600781106105ca576105ca61072a565b0160008282546105da9190610740565b90915550505050565b6040518060a001604052806005905b6105fa61061f565b8152602001906001900390816105f25790505090565b5061036090602381019061063d565b6040518060e001604052806007906020820280368337509192915050565b8082111561065a576000610651828261065e565b5060070161063d565b5090565b506103609060078101905b8082111561065a5760008155600101610669565b610460810181836000805b60058110156106ce57825184835b60078110156106b5578251825260209283019290910190600101610696565b50505060e0939093019260209290920191600101610688565b5050505092915050565b6000602082840312156106ea57600080fd5b81356001600160a01b038116811461070157600080fd5b9392505050565b6000806040838503121561071b57600080fd5b50508035926020909101359150565b634e487b7160e01b600052603260045260246000fd5b8082018082111561076157634e487b7160e01b600052601160045260246000fd5b9291505056fea26469706673582212209b9045710c0949f09584957c2a31b3001b2a3f192aabe0aa75ce40346f307f8464736f6c63430008110033",
    "sourcePath": "c:/Users/Пук-Пукич/Desktop/iota-research-main/smart/cowork.sol",
    "compiler": {
        "name": "solc",
        "version": "0.8.17+commit.8df45f5f"
    },
    "functionHashes": {
        "addReservation(uint256,uint256)": "fc36ce8a",
        "admin()": "f851a440",
        "admin2()": "06a8f8a2",
        "getAllTable()": "0d0d141d",
        "getClientReservations(address)": "bfd1f5b5",
        "resetAll()": "e103aef5",
        "resetClientInfo(address)": "90da80d3",
        "setAdmin2(address)": "1bf602ff",
        "withdraw()": "3ccfd60b"
    },
    "gasEstimates": {
        "creation": {
            "codeDepositCost": "389800",
            "executionCost": "infinite",
            "totalCost": "infinite"
        },
        "external": {
            "addReservation(uint256,uint256)": "infinite",
            "admin()": "2392",
            "admin2()": "2327",
            "getAllTable()": "infinite",
            "getClientReservations(address)": "infinite",
            "resetAll()": "infinite",
            "resetClientInfo(address)": "infinite",
            "setAdmin2(address)": "31014",
            "withdraw()": "infinite"
        }
    }
}