{
    "contractName": "Rent",
    "abi": [
        {
            "inputs": [
                {
                    "internalType": "address payable",
                    "name": "_admin",
                    "type": "address"
                }
            ],
            "stateMutability": "nonpayable",
            "type": "constructor"
        },
        {
            "inputs": [
                {
                    "internalType": "uint8",
                    "name": "_day",
                    "type": "uint8"
                },
                {
                    "internalType": "uint8",
                    "name": "_room",
                    "type": "uint8"
                },
                {
                    "internalType": "address",
                    "name": "wallet",
                    "type": "address"
                }
            ],
            "name": "addReservation",
            "outputs": [],
            "stateMutability": "payable",
            "type": "function"
        },
        {
            "inputs": [],
            "name": "admin",
            "outputs": [
                {
                    "internalType": "address payable",
                    "name": "",
                    "type": "address"
                }
            ],
            "stateMutability": "view",
            "type": "function"
        },
        {
            "inputs": [],
            "name": "getAllTable",
            "outputs": [
                {
                    "internalType": "uint256[7][5]",
                    "name": "",
                    "type": "uint256[7][5]"
                }
            ],
            "stateMutability": "view",
            "type": "function"
        },
        {
            "inputs": [],
            "name": "getBalance",
            "outputs": [
                {
                    "internalType": "uint256",
                    "name": "",
                    "type": "uint256"
                }
            ],
            "stateMutability": "view",
            "type": "function"
        },
        {
            "inputs": [
                {
                    "internalType": "address",
                    "name": "wallet",
                    "type": "address"
                }
            ],
            "name": "getClientReservations",
            "outputs": [
                {
                    "internalType": "uint8",
                    "name": "_day",
                    "type": "uint8"
                },
                {
                    "internalType": "uint8",
                    "name": "_room",
                    "type": "uint8"
                },
                {
                    "internalType": "uint256[7][5]",
                    "name": "_allroom",
                    "type": "uint256[7][5]"
                }
            ],
            "stateMutability": "view",
            "type": "function"
        },
        {
            "inputs": [],
            "name": "resetAll",
            "outputs": [],
            "stateMutability": "nonpayable",
            "type": "function"
        },
        {
            "inputs": [
                {
                    "internalType": "address",
                    "name": "wallet",
                    "type": "address"
                }
            ],
            "name": "resetClientInfo",
            "outputs": [],
            "stateMutability": "nonpayable",
            "type": "function"
        },
        {
            "inputs": [],
            "name": "withdraw",
            "outputs": [],
            "stateMutability": "nonpayable",
            "type": "function"
        }
    ],
    "bytecode": "608060405234801561001057600080fd5b5060405161090f38038061090f83398101604081905261002f916100ae565b6001600160a01b0381166100895760405162461bcd60e51b815260206004820152601b60248201527f41646d696e20616464726573732063616e2774206265206e756c6c0000000000604482015260640160405180910390fd5b600080546001600160a01b0319166001600160a01b03929092169190911790556100de565b6000602082840312156100c057600080fd5b81516001600160a01b03811681146100d757600080fd5b9392505050565b610822806100ed6000396000f3fe60806040526004361061007b5760003560e01c806390da80d31161004e57806390da80d3146100f8578063bfd1f5b514610118578063e103aef514610147578063f851a4401461015c57600080fd5b80630d0d141d146100805780630e649ecd146100ab57806312065fe0146100c05780633ccfd60b146100e3575b600080fd5b34801561008c57600080fd5b50610095610194565b6040516100a291906106b8565b60405180910390f35b6100be6100b93660046106fa565b610232565b005b3480156100cc57600080fd5b506100d56103c9565b6040519081526020016100a2565b3480156100ef57600080fd5b506100be6103f9565b34801561010457600080fd5b506100be61011336600461073d565b610460565b34801561012457600080fd5b5061013861013336600461073d565b6104bd565b6040516100a29392919061075f565b34801561015357600080fd5b506100be610594565b34801561016857600080fd5b5060005461017c906001600160a01b031681565b6040516001600160a01b0390911681526020016100a2565b61019c6105cc565b6000546001600160a01b031633146101cf5760405162461bcd60e51b81526004016101c690610787565b60405180910390fd5b6040805160a08101909152600160056000835b82821015610229576040805160e081019182905290600784810287019182845b815481526020019060010190808311610202575050505050815260200190600101906101e2565b50505050905090565b60068360ff161115801561024a575060048260ff1611155b6102965760405162461bcd60e51b815260206004820152601860248201527f556e617070726f70726961746520706172616d6574726573000000000000000060448201526064016101c6565b655af3107a40003410156102ec5760405162461bcd60e51b815260206004820152601b60248201527f556e617070726f70726961746520616d6f756e74206f6620776569000000000060448201526064016101c6565b6001600160a01b038116600090815260246020526040902060019060ff85166005811061031b5761031b6107b5565b600702018360ff1660078110610333576103336107b5565b01600082825461034391906107cb565b90915550600190508060ff851660058110610360576103606107b5565b600702018360ff1660078110610378576103786107b5565b01600082825461038891906107cb565b90915550506001600160a01b03166000908152602460205260409020602301805460ff9283166101000261ffff199091169290931691909117919091179055565b600080546001600160a01b031633146103f45760405162461bcd60e51b81526004016101c690610787565b504790565b6000546001600160a01b031633146104235760405162461bcd60e51b81526004016101c690610787565b600080546040516001600160a01b03909116914780156108fc02929091818181858888f1935050505015801561045d573d6000803e3d6000fd5b50565b6000546001600160a01b0316331461048a5760405162461bcd60e51b81526004016101c690610787565b6001600160a01b0381166000908152602460205260408120906104ad82826105f9565b50602301805461ffff1916905550565b6000806104c86105cc565b336001600160a01b03851614610502576000546001600160a01b031633146105025760405162461bcd60e51b81526004016101c690610787565b6001600160a01b0384166000908152602460205260408082206023810154825160a0810190935260ff80821697506101009091041694509091600590835b82821015610587576040805160e081019182905290600784810287019182845b81548152602001906001019080831161056057505050505081526020019060010190610540565b5050505090509193909250565b6000546001600160a01b031633146105be5760405162461bcd60e51b81526004016101c690610787565b6105ca600160006105f9565b565b6040518060a001604052806005905b6105e3610608565b8152602001906001900390816105db5790505090565b5061045d906023810190610626565b6040518060e001604052806007906020820280368337509192915050565b8082111561064357600061063a8282610647565b50600701610626565b5090565b5061045d9060078101905b808211156106435760008155600101610652565b806000805b60058110156106b157825185835b6007811015610698578251825260209283019290910190600101610679565b50505060e094909401936020929092019160010161066b565b5050505050565b61046081016106c78284610666565b92915050565b803560ff811681146106de57600080fd5b919050565b80356001600160a01b03811681146106de57600080fd5b60008060006060848603121561070f57600080fd5b610718846106cd565b9250610726602085016106cd565b9150610734604085016106e3565b90509250925092565b60006020828403121561074f57600080fd5b610758826106e3565b9392505050565b60ff8481168252831660208201526104a0810161077f6040830184610666565b949350505050565b6020808252601490820152732ab9b2b91034b9903737ba1030b71030b236b4b760611b604082015260600190565b634e487b7160e01b600052603260045260246000fd5b808201808211156106c757634e487b7160e01b600052601160045260246000fdfea2646970667358221220f283b2843acea75f5e933b5fb64a65f49d431c4cd06a72dbf30d89fcf68fc6f564736f6c63430008110033",
    "sourcePath": "c:/Users/Пук-Пукич/Desktop/iota-research-main/web/contract/contract_new.sol",
    "compiler": {
        "name": "solc",
        "version": "0.8.17+commit.8df45f5f"
    },
    "functionHashes": {
        "addReservation(uint8,uint8,address)": "0e649ecd",
        "admin()": "f851a440",
        "getAllTable()": "0d0d141d",
        "getBalance()": "12065fe0",
        "getClientReservations(address)": "bfd1f5b5",
        "resetAll()": "e103aef5",
        "resetClientInfo(address)": "90da80d3",
        "withdraw()": "3ccfd60b"
    },
    "gasEstimates": {
        "creation": {
            "codeDepositCost": "416400",
            "executionCost": "infinite",
            "totalCost": "infinite"
        },
        "external": {
            "addReservation(uint8,uint8,address)": "infinite",
            "admin()": "2403",
            "getAllTable()": "infinite",
            "getBalance()": "2466",
            "getClientReservations(address)": "infinite",
            "resetAll()": "infinite",
            "resetClientInfo(address)": "infinite",
            "withdraw()": "infinite"
        }
    }
}